:060000000A128A11122809
:10000800FE00030E83120313DD000408DE000A0855
:10001800DF007F08E0000A128A1110290A128A11EB
:10002800152883120313E101E201E301E4018301CE
:100038000A128A11C92A83120313AB002130A800BF
:10004800FB2825302C0603192A282B2835282B08AD
:1000580084002C08831380000130A3002308AB0719
:10006800FB28A6014A282808840083130008AC004E
:100078000230A3002308A8072B0884002C08831348
:1000880080000130A3002308AB07FB280130A0073C
:10009800FF30200784000A128A1151220A128A119D
:1000A800AC00A300A4012408003A03195C284028E6
:1000B8002308003A03190B29633A03193728073A2A
:1000C80003196A280D3A03196A2840282808840069
:1000D80083130008A900840A0008AA000230A300BC
:1000E8002308A807AA1F79287A2883280330A300A1
:1000F8002308A604A909AA09A90A0319AA0AAC018E
:10010800AC0A2C08A3002307013E84000A128A11B6
:1001180051220A128A11A4000A128A1151220A12C3
:100128008A11A50025082A02031D9C2824082902F3
:1001380003189F28A028A128AB280130A300230872
:10014800AC0705302C06031DAA28AB2885282608ED
:1001580003390319B028B128BA282B0884002D3098
:10016800831380000130A3002308AB072C08A700E5
:10017800F2280A30F8000030F9002708A300230706
:10018800013E84000A128A1151220A128A11F000D3
:100198000A128A1151220A128A11F1002A08F30060
:1001A8002908F2000A128A1161210A128A117108BB
:1001B800FB007008FA000A128A11E0210A128A115B
:1001C8007808303E83120313AC002B0884002C08F7
:1001D800831380000130A3002308AB07FF30A3007E
:1001E8002308A707270A031DFA28FB28BD28013082
:1001F800A007FF30200784000A128A1151220A1230
:100208008A11AC002C08031D0A290B2925282B0864
:1002180084008313800108008C1E132914291929CE
:100228000A128A11EB220A128A110B1C1C291D2999
:100238005429831203130618222923292C29013053
:10024800E3070318E40A0030E4076308850053292C
:1002580086182F2930293929FF30E3070318E40AC3
:10026800FF30E40763088500532906193C293D2916
:1002780046294130AD0063080A128A111A220A126F
:100288008A115329861949294A2953294430AD002E
:1002980008080A128A111A220A128A1153290B1005
:1002A800831203136008FF005F088A005E08840059
:1002B8005D0E8300FE0E7E0E0900F501F601700842
:1002C8007104031968296929A029F701F70A772910
:1002D80001300310F00DF10DFF3E031D6D290130B3
:1002E800F4007408F707F11F7A297B296C2901307B
:1002F8000310F50DF60DFF3E031D7C2971087302EE
:10030800031D882970087202031C8B298C299329E4
:100318007008F2027108031CF303F302751401302C
:100328000310F10CF00CFF3E031D94290130F70275
:10033800031D9F29A0297B297608F1007508F00084
:10034800080083160317880189010F3083160313E9
:1003580086008501880189018312031385018601BE
:10036800880189018316031381137F309600753045
:100378008F000B108B150B178B17C33083120313C9
:100388009F05831603131F129F12831203131F085E
:100398003F3980389F00831603139F13831203137A
:1003A8001F14033083160313A1009730A000A00B7D
:1003B800DB29A10BDB290800780879040319E52952
:1003C800E629152AFD01FD0AF42901300310F80D6C
:1003D800F90DFF3E031DEA290130FC007C08FD07EA
:1003E800F91FF729F829E92979087B02031DFE2955
:1003F80078087A02031C012A022A082A7808FA02D5
:100408007908031CFB03FB0201300310F90CF80CFC
:10041800FF3E031D092A0130FD02031D142A152A77
:10042800F8297B08F9007A08F800080083120313FA
:10043800DC001A3083120313AF00F730AE00AE0BA6
:10044800232AAF0B232A282A263083120313A0005D
:100458005C08AE00AF012E08A1002F08A20058309A
:100468000A128A111F200A128A110B3083120313F1
:10047800A0002D08AE00AF012E08A1002F08A20091
:1004880030300A128A111F200A128A1158300A12B3
:100498008A11A5220A128A11080002308A0004086B
:1004A800840A82070034013400340A340034643486
:1004B8000034E83403341034273445346C342034A1
:1004C800763461346C346F34723420346434653477
:1004D8006C342034703475346534723474346F3449
:1004E8002034253463342034653473343A3400348A
:1004F800253464340D3400340C308316031399000A
:100508009A011811831603178711831203131816FB
:1005180083160313181283120313981783160313F1
:10052800981683120313181383160313981683124D
:1005380003130C12831603138C16831203138C12E5
:100548000800F300F101F201BD2A831203130C1E07
:10055800AE2AAF2AA92A71087307F0007008840030
:100568008313000899000130F1070318F20A0030DC
:10057800F20771087307F0007008840083130008FD
:10058800031DC72AC82AA92A08000A128A11A52108
:100598000A128A110A128A1180220A128A118312F7
:1005A80003138C1ED82AD92AD32A0630831603139C
:1005B800A4001330A300AD30A200A20BE12AA30BC4
:1005C800E12AA40BE12AD32A0A128A1112288312DB
:1005D80003138C1EF02AF12AEB2A1A08F1002B309B
:1005E8007106031DF82AF92AFE2A0130F000700866
:1005F8008807062B2D307106031D032B042B062BB1
:0606080001308802080029
:08400000FF3FFF3FFF3FFF3FC0
:04400E00D420FF3F7C
:00000001FF
